:020000040000FA
:10000000C0570020E120000047510000B52000004B
:10001000B5200000B5200000B52000000000000061
:10002000000000000000000000000000191C00009B
:10003000B520000000000000B5200000B520000041
:10004000951C0000951C0000951C0000951C0000EC
:10005000951C0000951C0000951C0000951C0000DC
:10006000951C0000951C0000951C0000951C0000CC
:10007000951C0000951C0000951C0000951C0000BC
:10008000951C0000951C0000951C0000951C0000AC
:10009000951C0000951C0000951C0000951C00009C
:1000A000951C0000951C0000951C0000951C00008C
:1000B000951C0000951C0000951C0000951C00007C
:1000C000951C0000951C0000951C0000951C00006C
:1000D000951C0000951C0000951C000053B94AB9FE
:1000E000002908BF00281CBF4FF0FF314FF0FF3040
:1000F00000F00CB8ADF1080C6DE904CE00F008F882
:10010000DDF804E0DDE9022304B07047704700BF6A
:100110002DE9F04786468C460846089E15467446EB
:100120001946002B40F0C2808542B2FA82F245D9CE
:100130004AB1C2F1200300FA02FC2EFA03F3954003
:1001400043EA0C0C94404FEA154EA8B2BCFBFEF8F3
:10015000230C0EFB18CC08FB00F943EA0C4399452D
:1001600028D9EB1808F1FF3704D2994502D9A8F134
:1001700002072B44A3EB0903A4B2B3FBFEFC0EFB66
:100180001C330CFB00F044EA0344A04214D92C19A0
:100190000CF1FF3304D2A04202D9ACF102032C448B
:1001A000241A43EA07401EB1D44000233460736030
:1001B000BDE8F0874746DDE76346F1E792BB431BA6
:1001C00001214FEA154EAFB2B3FBFEFC200C0EFB33
:1001D0001C330CFB07F840EA0343984562D9EB183F
:1001E0000CF1FF3004D2984502D9ACF102002B4447
:1001F000A3EB0803A4B2B3FBFEFC0EFB1C330CFB09
:1002000007F744EA0344A7424ED92C190CF1FF33F7
:1002100004D2A74202D9ACF102032C44E41B43EA06
:100220000040C0E7C2F1200320FA03F1954090405E
:100230002EFA03F303434FEA154EAFB2B1FBFEFCB7
:100240000EFB1C10190C0CFB07F841EA0041884515
:1002500004FA02F422D969180CF1FF3004D288455F
:1002600002D9ACF102002944A1EB08019BB2B1FB19
:10027000FEFC0EFB1C110CFB07F743EA01439F42F7
:100280000ED9EB180CF1FF3104D29F4202D9ACF128
:1002900002012B44DB1B41EA004192E76046E3E7A1
:1002A0006146F7E76046A3E76346B7E7834206D9AE
:1002B00016B9002108467BE7C6E900E0F9E7B3FA82
:1002C00083F78FB9834201D3724508D8BEEB02048D
:1002D00060EB030301209C461EB9002168E7384605
:1002E000FAE7C6E9004CF8E7C7F1200CBB4022FA58
:1002F0000CF41C432EFA0CF120FA0CF3B840014325
:100300004FEA14490EFA07F5B3FBF9F81FFA84FE19
:1003100009FB18300B0C08FB0EFA43EA00439A4520
:1003200002FA07F240D9E31808F1FF3004D29A45E7
:1003300002D9A8F102002344A3EB0A0389B2B3FB5C
:10034000F9F809FB183308FB0EFE41EA03418E451C
:100350002CD9611808F1FF3304D28E4502D9A8F1D7
:100360000203214443EA0040A0FB0298A1EB0E01E6
:100370004145CE46434602D306D14D4504D2B9EBA2
:10038000020E68EB04030138002EA6D0B5EB0E0276
:1003900061EB030101FA0CFC22FA07F34CEA0303B8
:1003A000F940C6E9003198E74046C5E74346D9E73A
:1003B000F0B52D4B2D4AC3F800262D48C3F804266E
:1003C00085B0C3F808264921C3F80C26C3F81026C7
:1003D000C3F81426C3F81826C3F81C2604F02FFE11
:1003E00000F074F801A800F0D5FC224B1B68834292
:1003F00004D02148452104F022FEFEE7039A1F485D
:10040000492104F01CFE1E48492104F018FE4FF457
:100410004041002005F018F9044620B11948452153
:1004200004F00DFEFEE769469DF8080000F02EF886
:10043000009B039D1D44019B1E8900F089FFAF199D
:1004400000F05CFF01F076FEAB5983F3088884F37B
:100450001488BFF36F8FBFF36F8F7B6898470A488C
:10046000452104F0ECFDFEE7000001403546526EE8
:10047000707500006001002089750000AC750000F7
:10048000DB750000007600003376000008B50246F8
:1004900038B105480023452104F0D1FD6FF0150067
:1004A00008BD0860FCE700BF567600001FB50C468B
:1004B000014601AA044804F09EFF18B9019B23607D
:1004C000029B636004B010BDDC70000002484FF472
:1004D000C05103F0A7B800BF700E00202DE9F04F07
:1004E000F9B0DDE98448DFF8E0A138A8DAF8006067
:1004F00017461D4606F094FC002138A803F0B0F919
:100500003CB1B8F1000F04DD4246214638A806F0A0
:100510008BFC7B89B7F808809844FB684FF0000992
:100520009844C84521D80DA938A806F0B6FC869B8A
:1005300023B120220DA9184604F023FE00230093C6
:100540002A464FF6FF73394607A804F028FA0446F6
:1005500038B928460C9F00F0DDF987421BD94FF0CF
:10056000FF34204679B0BDE8F08F839B829AA8EBD8
:10057000090B9B4528BF9B465B464946284604F02D
:100580006CFD04460028ECD182995A4638A806F042
:100590004BFCD944C5E7DFF834914FF0FF370DF13C
:1005A000160305AA06A907A804F047FAB0F1000847
:1005B000C0F288807BD1BDF816B0BBF1100F18D106
:1005C000BDF81440202CCAD10699234638AA2846E3
:1005D00004F043FD8046002874D1224638A90DA8B6
:1005E00004F077FA04463A4B1B688342B9D10124E0
:1005F000D5E7BBF1010F37D1BDF81430202BAED8B1
:10060000069938AA284604F028FD8046002859D1CA
:100610009DF814B0BBF1200F03D94FF0FF384746C7
:10062000BDE7D9F800302B4F0393039B9845F4DACC
:100630001DA806F0F5FB00211DA803F011F97A684A
:1006400057F8081B12681DA806F0EEFB15A91DA897
:1006500006F023FC5A4638A915A804F082FD0028AC
:10066000DDD008F10108E0E7BBF1200F97D17B1C3A
:1006700095D0D9F80030BB4216DDBDF81430B3F583
:10068000807F7FF46CAF069938AA284604F0E5FC19
:100690008046B8B9FFB2BDF81430009738AA594661
:1006A0000DA800F019F806464FF0FF3777E73CB188
:1006B000074B1B68B34218BFDAF80060344650E7B6
:1006C0004FF0010844464CE700000020B8720000DB
:1006D00060010020BC7200002DE9F04F1F46ADF50F
:1006E0004B7D6A4B9DF850631D68804627A88A465B
:1006F000914606F052FB664B53F83640029403EBEA
:10070000C6038AAA5B681B681C442146302302A8E2
:1007100005F0D6F868BB029B8A9A13449C4228D104
:1007200029AA214602A805F0DFF810BB0DF1B00B95
:100730005A46214602A805F0D7F80646C8B929A8A6
:1007400005F0F3FB029B28909C4212D1CDE9006B8F
:100750003346324629A927A806F0DCFA48B927A86B
:1007600003F010F828B929A805F0DFFB874228908C
:100770000AD027A806F01BFB27A806F018FB28467E
:100780000DF54B7DBDE8F08FB7F5807F02D04FF0BF
:10079000FF35F1E7BAF1200FF9D18AAA494627A817
:1007A00003F016F804460028F1D19DF82733BC2B3E
:1007B000EDD152AF0390DF263D460CA806F030FB8A
:1007C00000210CA803F04CF820220DF207310CA8F0
:1007D00006F02AFB042203A90CA806F025FB04A9B5
:1007E0000CA806F05AFB202E9DF80F30B146A8BF8A
:1007F0004FF02009013338464A4604A9A6EB090602
:100800008DF80F3004F0BDFC002E4F44D5DC2F4690
:100810008AAB29460022087813F8016B0132704038
:10082000DF2A01F8010BF6D12B7803F07F032B7040
:1008300017F8016B002EAAD10134BE2CF8D195F81F
:10084000BE30012BA3D10CA806F0EAFA31460CA861
:1008500003F006F80F4908220CA806F0E5FA414615
:1008600020220CA806F0E0FA20220DF207210CA8A5
:1008700006F0DAFA04A90CA806F00FFB20220DF20C
:10088000073104A804F025F9054682E7000000209E
:10089000BC7200007C7600002DE9F04186B0042394
:1008A000DFF86C80ADF800300D466F46002617F873
:1008B000010B01A901F0C4F80446A0B901988168B0
:1008C000102302AA103904F0C8FB0446019804F072
:1008D000C3FB44B91022414602A804F042FC40B1D7
:1008E0002EB14FF0FF34204606B0BDE8F08101265E
:1008F000DDE7019804F0EBFE0423A0F108012A468D
:10090000019804F0AAFB0446019804F0A5FBEAE76D
:100910006075000007B504F0F0F86946FFF7C6FD02
:1009200038B10548452104F08AFB002003B05DF88A
:1009300004FB0098FAE700BF847600002DE9F0413F
:10094000354B88B0064600200C461D6804F01CF8A4
:1009500006A9C0B201F074F8002857D1214604F06E
:1009600013F82C2507A9C0B205FB046501F068F84F
:10097000002833D02C27674306EB0708069BD8F8DE
:10098000101011F0100138D14FF480720192234AF7
:100990000092CDE903112A4602910846FFF79EFD19
:1009A00005461F4BF25906989A420CD1D8F80C20F4
:1009B000B8F808309B1806D28268934203D2194BCC
:1009C0001B68AB421FD02CB38268002104F06FFB80
:1009D000154A1648452104F032FB13E0079804F04D
:1009E00081FB0746079804F037FB6B1EEA1C13F8DF
:1009F000011FB942BED19342F9D11CB106993046CC
:100A000004F05FF90125069804F026FB284608B09B
:100A1000BDE8F081064ADCE70000002070260020D7
:100A20003DB8F39660010020C7760000D176000043
:100A3000BF76000073B50D46044600212846CDE977
:100A4000001104F0FDF830B3164E2368B34203D111
:100A500001AA204604F089F8E36AB34204D16A4649
:100A60000121204604F081F8DDE90032934288BF7D
:100A70000193019BAB60019A2946204600F034FBAC
:100A8000094B1A68002A03DD0848572104F0D7FAF9
:100A9000002002B070BD05F10801FFF7FDFEAB6854
:100AA0000193E8E73DB8F396C40D0020F976000005
:100AB0002DE9F84FDFF870B01C4C1D4D884691466B
:100AC0009A4600260B9B9E4201D300200FE00B9B11
:100AD000154A9F1BB7F5806F28BF4FF480673B46D0
:100AE00006EB0A01404604F0B8FA10B10120BDE857
:100AF000F88F0A993B465A467118484604F0C2FAE4
:100B00000028F3D1C4F800563E44C4F80456C4F893
:100B10000856C4F80C56C4F81056C4F81456C4F855
:100B20001856C4F81C56CDE76409002000000140A7
:100B30003546526E2DE9FF418F4B43620E468F4B77
:100B4000036500210446084603F01EFF04F120015E
:100B5000C0B200F075FF0121002003F015FF04F181
:100B60004C01C0B200F06CFF0546204604F03EF890
:100B7000074668B900221146204603F0E0FF074609
:100B800000B37F480022572104F059FA01238FE077
:100B90007C488022572104F052FA01239F4284F8B6
:100BA0005830E7D194F858308DF80730042B00F214
:100BB0008280012B00F2858000F09C80FF2384F866
:100BC000583097E0204600F0A7F90028DED06846AC
:100BD00004F02DF86946204604F0C8F818B16A48B8
:100BE0003A465721D0E7684604F02AF880F0010120
:100BF0006A46C9B2204603F0A2FF02460028C0D1CF
:100C0000684604F01DF8074660BB69462046FFF7BA
:100C100011FF9DF8073084F85830033B012B06D8AC
:100C2000384604F0F2F810B1FF2384F858309DF8EC
:100C30000730023B022B0BD8002004F0D4F838B167
:100C4000FF2384F858305148452104F0F8F9FEE7B5
:100C500094F85830FF2BF6D06A460021204603F066
:100C60006EFF93E79DF80780B8F1010F15D110468C
:100C700002F008FB831E022B07460BD84146204694
:100C8000FFF75CFE424B1B68984203D0012814BF5B
:100C90000527012784F8587084E701212046FFF7D3
:100CA0004DFE3B4B1B6898420CBF9DF80730052357
:100CB00084F8583076E7052B80D1002004F0A5F8A1
:100CC00013E069462046FFF7B5FE94F85830DA1E67
:100CD000012A05460CD8002004F097F805460028A4
:100CE0007FF46CAF002004F07EF8054610B165E794
:100CF000022BF7D094F85830FF2B04D1234845211C
:100D000004F09DF9FEE7012B10D06A460021204631
:100D100003F015FF054648B1E06C04F09DF9206A28
:100D200004F09AF9284604B0BDE8F081002120467D
:100D3000FFF704FE0746DFF85880D8F800309842E5
:100D40000FD110220021684604F026FA206A03F031
:100D500024FE3071236A5B683460D8F80050B360B9
:100D6000DAE7E06C04F078F9206A04F075F9002DF8
:100D700008BF3D46D6E700BF64050020640100209F
:100D80006A7700002877000096770000C07700009F
:100D90006001002038B5064D044660220021284637
:100DA00004F0FAF921462846FFF7C4FE38BD00BF1B
:100DB000640D002073B516461D4643B15B79012BC7
:100DC00007D121B9204B2A681B689A4217D8002402
:100DD00018E0022BFBD12B68012B07D91A4A1268A5
:100DE0009342F4D8B1FA81F14909F0E7EFD131B17A
:100DF0000129ECD12979023918BF0121E7E7436ABB
:100E00005C680021002003F0BFFD01A9C0B200F022
:100E100017FE30B10124019804F01EF9204602B0FB
:100E200070BD214601982023324604F016F904468D
:100E30000028EFD1002DEED03468044BE41A18BF1F
:100E40004FF0FF34E7E700BF040000203DB8F39601
:100E50002DE9F04F074685B00C46014600201646A6
:100E600003F03EFE051E50DB3846E46D03F045FE00
:100E70005FFA84F96B1E09FB03084FF0000A4FF07C
:100E8000010B4FF0FF349DB9BAF1010F03DD21488A
:100E9000452104F0D4F8631C06D07F2C2ADC0134F1
:100EA00040F201133460B380284605B0BDE8F08FEE
:100EB0006B1E00930DF10F0201234146384604F0EA
:100EC000CCF8031E019322DB01220DF10F013846FD
:100ED00004F011FC019B40B15B4501D00AF1010A0D
:100EE000009DA8EB09089B46CDE7B4F1FF3F08BF82
:100EF0002C46F5E70223803C7371631004F0010473
:100F00000133013433603471CEE70725CCE7012586
:100F1000CAE700BFCC77000038B5816A426D9142C4
:100F200008D0531C8B4205D01348572104F087F892
:100F3000002038BD80291CD910485721F6E7446AA3
:100F4000056D04EBC30405EBC30564686D68AC4232
:100F500002D00B485721E9E701339A42EFD1914281
:100F600005D9436A03EBC2035B68A342F1D10120B8
:100F7000DFE700231C46F0E7EF770000277800004A
:100F80005678000000B589B004A9042004F025FCBF
:100F90009DF81020012A41D0254B2649032A08BF7D
:100FA0000B469DF8132002929DF8122001929DF8A5
:100FB0001120214800924921204A04F040F806A956
:100FC000072004F00AFC9DF81820012A28D0184BAD
:100FD0001849032A08BF0B469DF81B2002929DF872
:100FE0001A2001929DF8192000921348144A4921B1
:100FF00004F025F89DF81030012B13D19DF8123024
:10100000032B0FD19DF81830012B0BD00D4849212F
:1010100004F015F8022009B05DF804FB0A4BC0E7A4
:10102000094BD9E70948492104F009F80020F2E703
:10103000827800008B7800009F7800009178000093
:10104000E0780000F0780000867800000F7900005A
:1010500070B54B6814461E4A03F0FF23934286B0D6
:1010600006460D462FD10B68012B2CD104A9204632
:1010700002F0B2F89DF81020012A26D0154B16492F
:10108000032A08BF0B469DF8132002929DF81220F8
:1010900001929DF8112000921048114A492103F055
:1010A000CEFF9DF81030032B0DD12146304603F0C2
:1010B00008FE204604F084FBA968204603F030FDBA
:1010C000204602F069F806B070BD064BDBE700BFB2
:1010D00000010004827800008B7800009F780000F7
:1010E000E0780000867800002DE9F04F054689B0D1
:1010F0007D480C464921174603F0A1FF6B6A012287
:101100005E6800233344BB42114602F10102F9D369
:10111000764F2046396003F093FD08B3E86D03F085
:10112000DAFCAB6A03F1FF3800233344834202D276
:1011300008F1FF38F9E73B68434511D36C48572164
:1011400003F07DFF3A686B4808FB06F302FB06627A
:10115000572103F074FF0123E37109B0BDE8F08F5C
:1011600006A9042000F06CFC07A9072000F068FC29
:10117000079A21462846FFF76BFF6379012B0BD1B5
:10118000D7F80080DFF870B13B68DDF81890B8F14F
:10119000000F11D101232360022363714FF0010876
:1011A0003B68DDF818A0984549D9504603F054FF34
:1011B000079803F051FFD0E7226801339B1A984546
:1011C0003AD86B6A196853F8380003EBC803012A50
:1011D00053F8083CA3EB0103A0EB010A049311D1DF
:1011E000079B0393E368022B08D04946284603F087
:1011F00068FD22464946284603F099FD0399284692
:1012000003F05FFD32465146484603F058FD049B0B
:101210004A464946CDE900A62846FFF749FC214643
:10122000284603F01AFD23680133236020B1DBF860
:1012300000300133CBF8003008F1FF38A4E7236811
:1012400098454ED36A6ADDF81CB052F83810049104
:101250004FEAC803083B11680391D1582A6DD05852
:101260001368A0EB03092379012B38D1039B324685
:10127000C91A5046059103F022FD059900914B468D
:101280005246594601962846FFF712FC2146284649
:1012900003F0E3FC0223237118B1174A13680133EA
:1012A000136032464946584603F009FDDDE9032341
:1012B00051469B1ACDE900965A462846FFF7F8FB9F
:1012C0002146284603F0C9FC23680133236001232B
:1012D000237130B1084A13680133136001E0022B17
:1012E000DFD008F101085BE7267900000400002048
:1012F0004F7900007E790000C40D0020BFF36F8F8E
:1013000072B6124B4FF0FF32C3F88020C3F884202E
:10131000C3F88820C3F88C20C3F89020C3F8942029
:10132000C3F89820C3F89C20C3F88021C3F8842117
:10133000C3F88821C3F88C21C3F89021C3F8942105
:10134000C3F89821C3F89C21704700BF00E100E07A
:10135000134A4FF0FF3301215160C2F84833C2F8FD
:10136000083302F5C0425160C2F84833C2F808336E
:1013700002F598325160C2F84833C2F80833A2F53A
:1013800008320021C2F80015C2F8083302F5E8322D
:10139000C2F808354FF08042C2F80833704700BFEA
:1013A00000B00040014B1B68184700BF0800002038
:1013B000014B1860704700BF0800002007B50B46BE
:1013C000002102460091034800F014F903B05DF8D3
:1013D00004FB00BFA51300002DE9F047058B044670
:1013E0002807904611D4022905F0070540F0CD806A
:1013F000204603F04AFD78B10138218B042811D82A
:10140000DFE800F0C3106D85950001290CBF45F0A1
:10141000100545F02005258388F31188BFF36F8FF1
:10142000BDE8F08701F0070AAA4500F0A680002772
:10143000B9463E46A368002B00F0BD8041F008018C
:10144000218388F31188BFF36F8FA168002900F012
:10145000BB800D68002900F0B780D1F804803346C6
:1014600052462046C047002D76D02B6829461D469F
:10147000F0E701F007035A1F012A1BD8002221F0D0
:101480000701062B276889B2C4E9002209D13B462F
:1014900003E0628B013262831B68002BF9D141F0BB
:1014A00002012183204603F0F0FC00287BD041F0AC
:1014B000200177E0042B0AD121F0070189B22183B2
:1014C000204603F0E2FC10B141F020012183218B82
:1014D00001F0070AAA4550D00027B946AAE72369B8
:1014E00021F0070141F00601062DD3F80090218379
:1014F0002DD1B9F1000F40D041F00801218388F3CC
:101500001188BFF36F8F3A492046C84729E021F080
:101510000701236941F0040189B2042DD3F8049036
:101520002183E6D000273E464FF0040A82E721F0EF
:101530000701236941F0050189B2052DD3F8089010
:101540002183D6D000273E464FF0050A72E70027D8
:101550003E464FF0060A6DE72B4687E7B9F1000FCC
:10156000D1D14FF02003EFF3118883F31288BFF33A
:101570006F8F238B23F008032383258BEA062ED558
:1015800025F01003238305F007056669218B002EE3
:10159000BFF66FAF00232768C4E9003321F00701CD
:1015A00041F001012183218B01F0070AAA454FF088
:1015B00000097FF43FAF002F9BD041F00801218349
:1015C00088F31188BFF36F8F002FC7D03D6839466D
:1015D00033465246204603F084FC2F46F4E7AB0620
:1015E0007FF51AAF25F02003238305F00705FFE6FA
:1015F0000F4F00002DE9F04F8DB01D46531E82465F
:10160000019103934FF00009039B5878252803F1BB
:10161000010419D11E4600204FF0FF380236034660
:101620000290444631780396392954D81F2914D89A
:10163000002900F0F08101992520D04701993078E8
:10164000D04709F10209DFE7002800F0E4810199A1
:10165000D04709F101090394D6E7A1F12002192A24
:10166000E9D801A757F822F0D1160000371600007C
:1016700037160000D1160000371600005117000081
:101680003716000037160000371600003716000026
:101690009D170000D116000037160000B11700009A
:1016A0005D170000371600006B1700008B17000055
:1016B0008B1700008B1700008B1700008B170000A2
:1016C0008B1700008B1700008B1700008B17000092
:1016D00008460136A6E7582900F0EE80A1F1630222
:1016E000D7B2172FA7D8172AA5D801A757F822F0E5
:1016F0005F190000D71700003716000037160000EA
:1017000037160000B7170000D71700003716000083
:1017100037160000B7170000371600003716000014
:101720003716000093180000371600003716000027
:101730003319000037160000D717000037160000D5
:10174000371600009318000037160000B717000086
:1017500001992520D04709F1010955E7029A02F0C5
:10176000FE0202924FF00008B3E7002C0DDAB8F148
:10177000000F0DDA029A002A00F0458124EAE47491
:101780000A2202FB0414303CA3E7B8F1000FF5DB9A
:101790000A2202FB0812A2F130089AE7B8F1000F02
:1017A00055F8042B80F23181002A80F230815442B6
:1017B000022202928DE7682903D1682B06D14823C3
:1017C00087E76C2902D16C2B00F02381002B7FF47A
:1017D00032AF0B467DE77A2B06D1752955F8046B9D
:1017E00014D14FF0000B0CE06C2BF6D04C2BF4D145
:1017F000073525F007037529D3E9006B03F10805C8
:1018000006D120283ED1864F013C09E04FEAE67B15
:10181000BBF1000FF5DA7642824F6BEB4B0B013CCC
:101820000DF12D03059300230493304659460A22F7
:101830000023FEF753FC049B03F1FF3CCDF810C0DE
:10184000DDF814C030320CF8012DCDF814C0B446C8
:101850005A46BCF10A0F72F1000206468B46E4D2EA
:10186000C3F1010B30330DEB0306B8F1000FA6F105
:1018700004066DDA029BD9077CD4A8EB0B03A4EB1A
:101880000B0413E02B280ABF674F684F04F1FF34A5
:10189000C6E770290FD155F8042B0023FAB9644E1E
:1018A000053C6FF004034FF0050B604F029A92075E
:1018B0006FD4A04665E078216C2B03D155F8042B3A
:1018C000002308E04C2BF9D1073525F007031D460E
:1018D0005B6855F8082B232825D1880621D5554F5C
:1018E000023C01F06001A1F1390B0DF12D0E002633
:1018F00002F00F01092988BF594430310EF8011D4B
:10190000102A4FEA121141EA03714FEA131073F1E2
:10191000000306F1FF3C08D2C6F1010B06F13003CB
:10192000A1E7454FDCE7414FDBE766460A46034641
:10193000DEE755F8046B304603F00CFCB8F1000FFD
:10194000834602DB4045A8BFC346384F4FF000082E
:10195000A8EB0B03002B92DDA4EB0804A6E755F8D7
:10196000043B8DF81830013C4FF0FF334FF0010B72
:1019700006AE9AE7A046EBE7029301992020D047F4
:10198000029BB8F10108F7D524EAE472013C9144C6
:10199000A41AB84606E0049302920199D047029A2D
:1019A000049B9046424612F8010B0028F3D11A46D8
:1019B000013A15D5002BACBFC7EB03077F425B464E
:1019C000013B15D5BBF1000FA8BF5F444F4426462D
:1019D000013E14D5002CA8BF3F1907EB080913E6F8
:1019E0000493029201993020D047049B029ADFE7CA
:1019F0000293019916F8010BD047029BE0E7019989
:101A00002020D047E4E70122D3E6904661E6144661
:101A10005FE64C235DE648460DB0BDE8F08F00BFA1
:101A20004A7E0000CE7A0000D07A00002E820000AC
:101A3000D87A0000D27A0000D57A000002F032B8DD
:101A400070B5114B1C680D46DCB1104B19680023B2
:101A50008B4202DB6FF0010070BD224612F8106B62
:101A6000864202D001331446F2E7E06810B96FF005
:101A70001200F1E705F0D0FA0028F8D02C60002021
:101A8000EAE76FF00C00E7E70C000020C8720000E6
:101A900070B588B005460C46C0B269461646FFF7D9
:101AA000CFFF00281BDB0098C8B14368029383680E
:101AB00022680195CDE903360023CDE9062305937D
:101AC000C56803F0C9FA6DB12846084901AA03F0B8
:101AD00096FC079808B9059B236008B070BD6FF0AD
:101AE0001500FAE76FF01200F7E700BFF3500000AF
:101AF000014910220A60704710ED00E072B64940BB
:101B000081F31188BFF34F8F20BF80F3118862B635
:101B1000704700BF37B505460C46C9B18B680093C6
:101B2000D1E900230E48452103F089FA6369009347
:101B3000D4E903230B48452103F081FAE2690A48FE
:101B4000452103F07CFAA2690848452103F077FAA1
:101B50002146284603B0BDE8304002F093BD00BFE7
:101B6000DE7A0000127B0000467B00005A7B0000FA
:101B700040B2002807DB044A4109012300F01F009E
:101B8000834042F82130704700E100E0054B4209F4
:101B900000F01F0053F82220012303FA00F0104048
:101BA000704700BF00E100E040B20028A8BF00F18C
:101BB000604001F10101B8BF064B4FEA4111ACBFD3
:101BC00000F5614000F00F00C9B2B4BF195480F8AD
:101BD0000013704714ED00E030BFFFF7FDBF00BFFA
:101BE0000B4A08B50B4B22F07F029A60BFF34F8F70
:101BF000BFF36F8FD3F8882022F47002C3F88820D7
:101C000002F0B8FD02F0FEFD00F05EFA02F0BEFD4B
:101C10000000000000ED00E01EF0040F0CBFEFF329
:101C20000880EFF30980816911F8021C0229FFD0B6
:101C300001B503F080FA01BD10F1160F074B08D073
:101C4000984208D34033834205D98B4203D90448D4
:101C500070474033F9E70020704700BFC02F0020D5
:101C60000030002004462025084611461A46084B3D
:101C700083F3098863B64FF0000383F31188BFF341
:101C80006F8FA04785F31188BFF36F8FFEE700BF0A
:101C90000058002001B5EFF30580A0F110004FEAD5
:101CA000C0000449014409C99847BDE80140024900
:101CB00008470000F4700000BD1C0000704700BF22
:101CC0002DE9F041324C07468846324845211546F9
:101CD00003F0B5F9A36ADE0603D52F48452103F0CA
:101CE000AEF9A36A180703D52C48452103F0A7F9DC
:101CF000274CA36A990728D46FF01506244CA36AD1
:101D0000DB0703D52648452103F099F9A36A9C0611
:101D100003D52448452103F092F91D4CA36AD80647
:101D200028D4A36A990725D40020A36A184A9B06E1
:101D300042BF636A23F400536362936A43F0FF0374
:101D4000936200232B70BDE8F0811748452103F012
:101D500076F9666BA36A1A06CED514483246452139
:101D600003F06DF9B8F1000FC8D0A36A23F0800327
:101D7000A362C3E763681A05D6D539463046FFF734
:101D80005BFF0028D0D080F309880220CDE700BF98
:101D900000ED00E08D7B0000A87B0000E07B0000F0
:101DA000307C0000547C0000F87B0000157C0000B3
:101DB00010B51D4C1D48452103F041F9A36A9B0154
:101DC00003D51B48452103F03AF9A36ADC0103D58A
:101DD0001848452103F033F9134CA36A180303D5BF
:101DE0001548452103F02BF9A36A590303D513487D
:101DF000452103F024F90C4CA36A9A0303D510483B
:101E0000452103F01CF9A36ADB0303D50D484521E6
:101E100003F015F9044A936A6FEA03436FEA134328
:101E20009362002010BD00BF00ED00E0887C000040
:101E3000A57C0000BD7C0000DC7C0000FF7C000075
:101E4000297D0000487D000070B5234C06460D46F4
:101E50002248452103F0F3F8A36AD90403D52048AA
:101E6000452103F0ECF8A36A1A0503D51D48452166
:101E700003F0E5F8184CA36A9B0510D51A484521D4
:101E800003F0DDF8A26BA36A180408D517484521B2
:101E900003F0D5F81EB1A36A23F40043A3620E4CED
:101EA000A36A590503D51248452103F0C8F8A36A6F
:101EB000DA050BD50F48452103F0C1F8064A936AAD
:101EC000002043F47F439362287070BDA36A9B0493
:101ED000F4D509484521EFE700ED00E0787D0000EA
:101EE000937D0000E07B0000A97D0000C77D00001D
:101EF000E17D0000017E0000547C00002DE9F041EE
:101F00005D4B5F688AB00546C7F30804002686F378
:101F10001188BFF36F8F02F07F43B3F17F4F07D17A
:101F200002F00C03082B14D15448452103F087F824
:101F3000002635464FF00008E31E8DF80780092B78
:101F400000F28780DFE803F00A7A7E768585858552
:101F5000858210074CBF0D460126EBE74848464CEA
:101F6000452103F06CF88DF80780E36A9A0705D5E0
:101F70004448452103F063F8002433E0E36A002B72
:101F800002DA41484521F5E7E36A5B00F4D53F48B2
:101F9000452103F054F86369AA6943F480736361CF
:101FA000BFF34F8FBFF36F8F636932F8022C23F4B6
:101FB00080736361BFF34F8FBFF36F8F4DF6027372
:101FC0009A4209D0A36ADBB233B30DF107020121B3
:101FD0002846FFF775FE2FE02A682D48452103F0BB
:101FE0002EF82C689DF807309BB92022294602A8BC
:101FF00003F0C7F8099B002E38D0C3F3080222B9BA
:102000006FEA53236FEA4323099302A92046FFF79F
:1020100081FD0AB0BDE8F081A36A13F47F4F05D0BB
:102020000DF107010120FFF70FFF05E0A36AB3F5EB
:10203000803FA1D3FFF7BCFE0446D3E70DF10702B2
:102040000021C5E70DF107010020ECE7114845210B
:1020500090E71149114A124817F4F87F08BF0A4661
:10206000A4F11003452102F0EAFF85E723F4FF7392
:1020700023F00103C8E700BF00ED00E04C7E000044
:102080007C7E0000987E0000BE7E0000D17E0000B5
:10209000F57E0000167F00001E7E0000337E0000EB
:1020A0003F7F0000024A536943F0100353617047B9
:1020B00000ED00E0EFF30880EFF3098101B572460F
:1020C000FFF71CFF01BD00BF044800232021C218F8
:1020D0000133272B82F80013F9D1704700E100E0AB
:1020E000002080F31488BFF36F8FFFF7A7FC002058
:1020F0000D490860BFF34F8F0C4880F3088800F04B
:102100002BF8202080F3118809484FF4046140180F
:1021100080F30988EFF314800221084380F31488C8
:10212000BFF36F8FFFF75CFD94ED00E0C057002018
:10213000802700200749D1F890200023C2F307220E
:102140001846934200DB7047C1F89830C1F8A000F0
:102150000133F6E700ED00E008B572B6002383F323
:102160001388FFF7E7FF144B4FF0FF32C3F88020CE
:10217000C3F88420C3F88820C3F88C20C3F89020CB
:10218000C3F89420C3F89820C3F89C20C3F880219A
:10219000C3F88421C3F88821C3F88C21C3F89021A7
:1021A000C3F89421C3F89821C3F89C2162B6BFF309
:1021B0004F8FBFF36F8F08BD00E100E0024B034A71
:1021C0000348022100F06CB800000120000000204C
:1021D0002C730000F8B5244E00258D420FDA4468B8
:1021E000002C3ED09BB104F1FF3C14EA0C0F08D048
:1021F0001E482A46452102F022FF6FF015021046C4
:10220000F8BD1F2CF4D907681CEA070FF0D1202C69
:102210000768D0F808C05FFA82FE10D9B4F1004F09
:102220000FD8013CB4FA84F4C4F11F046400BEF179
:10223000070F4CEA040C06D90D484521DBE70824BA
:10224000F5E73E24F3E727F01F04144344F010049D
:10225000C6F89820C6F89C404CF00104C6F8A0408F
:10226000013201350C30B8E700ED00E05B7F000083
:10227000837F0000044B0522C3F89420BFF34F8FE7
:10228000BFF36F8F704700BF00ED00E0BFF35F8FBB
:10229000024B0022C3F89420704700BF00ED00E01D
:1022A00010B5034C01232278FFF794FF207010BD76
:1022B0007027002014490868082810B521D8FFF7B6
:1022C000E5FF124C49680022904201F10C0105D152
:1022D0000F4B1870FFF7CEFF002010BDC4F89820F8
:1022E00051F80C3C23F01F03134343F01003C4F8D0
:1022F0009C3051F8043C43F00103C4F8A030013293
:10230000E2E74FF0FF30E8E74473000000ED00E043
:1023100070270020014B1860704700BF100000209C
:102320004FF02002EFF3118382F31288BFF36F8F17
:10233000044A0121C2F8401583F31188BFF36F8F5F
:102340000020704700E001404FF08043C0B2C3F866
:102350001C05BFF34F8F0549054BCA6802F4E062C4
:102360001343CB60BFF34F8F00BFFDE700ED00E0EC
:102370000400FA0520B1034B800143F00103184724
:10238000704700BFB0720000084B70B5C31A0D460D
:1023900007499B10044659430648402202F024FF97
:1023A0002B4601462046BDE870401847DC0D002052
:1023B000B76DDBB69470000073B50C4C0C4A40232B
:1023C000041B00930D460B460A49A41061430646C0
:1023D000094802F035FF011E05DA30462B4602B0EF
:1023E000BDE87040184702B070BD00BFDC0D002092
:1023F000B1520000B76DDBB69470000010B54FF01D
:102400002003EFF3118483F31288BFF36F8F074A21
:10241000136823F00201DB07116002D4012004F0ED
:10242000DCFD84F31188BFF36F8F10BD2C0E0020EC
:10243000002270B5012104461046FFF7B5FB0F4896
:1024400001F018FD0E4B984215D104F0B9FD266934
:102450000C49304602F069FD00280BDB012535648C
:102460002469084904F11C0002F05FFD002801DB2B
:10247000E564002070BD6FF00400FBE7BD240000A0
:102480000000AD0B6473000070B501460C230948D1
:102490004B43C418D4E90E5600224033A2631844BB
:1024A00002F08FFE2DB132462B460348BDE8704046
:1024B000184770BDDC0D00209470000010B1012899
:1024C00004D07047034B1B6C5B0701D1FFF7DCBFE7
:1024D000704700BFDC0D002008B54FF02003EFF37C
:1024E000118183F31288BFF36F8F124A136843F090
:1024F00002001060DA0708D481F31188BFF36F8FF0
:102500000120BDE8084001F0C5BC4FF08043D3F87E
:102510000C24D3F80C34D307EED5074802F051FE53
:1025200081F31188BFF36F8F0020BDE80840FFF7EB
:10253000ABBF00BF2C0E00201C0E002010B5074CB6
:1025400023782BB94FF4A57004F07BFD0123237091
:10255000BDE81040002001F09DBC00BF71270020A5
:102560002DE9F8433649BFF35B8F0746012251E856
:10257000003F41E800200028F9D1BFF35B8F33B959
:10258000304931484B60CB608A6002F0E1FC7B1E31
:10259000012B2DD8012F07D14FF08043D3F81C34E5
:1025A00003F00303012B23D004F045FD054608BBCF
:1025B000264B1B78F3B14FF080430222C3F8082367
:1025C0000646DFF88C904FF080444FF00108D4F8B5
:1025D0001834D4F81824D20316D503F00303012BC2
:1025E00001D0012F10D12DB386F31188BFF36F8F67
:1025F000BDE8F8834FF02003EFF3118683F31288D0
:10260000BFF36F8F0125DCE73046FFF777FAD4F888
:102610001835002BDBD1D4F80421002AD7D0C4F818
:102620000431D4F80431C4F81885C9F88081C4F89D
:102630000880CCE74FF080430222C3F80423D7E799
:10264000D80D0020C80D0020F80D002074270020B0
:1026500000E100E008B5074804F0DEFC38B10648A8
:10266000FFF758FE0448FEF7A3FE002008BD6FF0F8
:102670001200FBE7C47000007D2600000A2838B570
:10268000074D044604D1AB680D215B682846984786
:10269000AB6803485B68E1B29847204638BD00BF8D
:1026A000C470000030B54068057B01F01F04B2F52E
:1026B000001F85B044EA451405D1204601F0AEFE66
:1026C000002005B030BD0025B2F5800FCDE90255E0
:1026D00014D1B3F1007F0CBF042305238DF808301B
:1026E0000023194602AA204601F0CEFC1D4B984259
:1026F00035D10121204601F04DFEE1E7B3F1C06F75
:1027000022D0B3F1007F14BF012302238DF80830DB
:102710008368CB40D907E3D4B2F1A07FE0D104F0C5
:102720001F0303F5E0734FF0A04252F82330DB079C
:10273000D6D40DF107052946204601F0D7FD0A4BF6
:10274000984203D00395CBE70323DFE7284601F047
:102750001BFE044B9842F5D06FF00B00B1E76FF011
:102760001500AEE70000AD0B0400AD0B10B501F095
:10277000FBFD044668B901F0CFFD084B98420AD131
:102780000748214601F0ACFD224605210620FFF74F
:102790000BFA002010BD6FF00400FBE70000AD0B4A
:1027A000A5270000430970B507D10B4B596821B12B
:1027B00001250C68094E854001B970BD8A682A4020
:1027C00002D04B68304698471CB1236821461C460E
:1027D000F2E72346FAE700BF300E0020AC7000009D
:1027E0002DE9FF4147683B7B01F01F0545EA431592
:1027F0000E4628460DF10301144601F077FD14F44E
:10280000403F80460BD1284601F030FE3D4B9845B5
:1028100003D19DF8030001F0B1FD00200CE000237E
:10282000194602AA2846CDE9023301F02DFC354BAA
:10283000984204D06FF0150004B0BDE8F0818045E7
:1028400003D19DF8030001F099FDA3034BD540F29D
:1028500006332340B3F5837F19D00CD8062B17D04D
:1028600004D8ABB1022BE5D1042311E0B3F5807F8E
:10287000E0D101230CE040F20222934227D0B3F5CD
:10288000407F26D0B3F5007FD4D1022300E0072398
:102890008DF8043084F48033C3F30043E0068DF8F0
:1028A000053054BFC4F34013032321038DF80630D1
:1028B00011D57A680123B340C2F80835002201A976
:1028C000284601F08FFC0F4B9842A6D0B2E70523B3
:1028D000DEE70323DCE7620341BF01237A68B340EC
:1028E000C2F80C35EAE7E3064FF0000354BFC4F327
:1028F000401403241A4601A928468DF8044001F02B
:10290000C3FBE0E70000AD0B024B0B60012313603B
:10291000704700BF3C0E002000487047EC73000079
:1029200010B504F074FB034C206004F06CFB606095
:10293000002010BD3C0E0020F8B50E46144604F0F1
:1029400062FB21460546304602F013FD374600B3D0
:10295000B6FBF5F305FB136323B9B4FBF5F305FBF5
:10296000134343B10D4823463246452102F067FB2D
:102970006FF0150002E0A54201D90020F8BD04F077
:1029800042FB0546384601F049FE641B2F44F9D14D
:10299000F3E70348234632464521E7E7F87F000086
:1029A0001C800000F8B50E463046194617461D46F5
:1029B00002F0DFFC40B913482B463246452102F0B5
:1029C0003EFB6FF01500F8BD46EA050414F0030461
:1029D00004D00D482B4632464521F0E74DB12B1966
:1029E000032BA6EB040006D8084AD2F80034DB0714
:1029F000FBD50020E7E73B1B043C196801F02EFEE5
:102A0000EDE700BF1C8000003E80000000E00140B8
:102A100070B50D462846194616461C4602F0A9FC1C
:102A200040B9084823462A46452102F008FB6FF0CA
:102A3000150070BD24B122462946304602F0A1FBA4
:102A40000020F6E71C800000F8B5044607690D4633
:102A500004F0F1FA90B92C4B1B787BB164266068C6
:102A600002F01CFDE0B9012004F0A8FA013EF6D105
:102A7000F4E786F31188BFF36F8FEFE74FF0200381
:102A8000EFF3118683F31288BFF36F8F60683146CE
:102A900002F004FD90B986F31188BFF36F8FEDE764
:102AA0004FF02003EFF3118683F31288BFF36F8F8B
:102AB0006068314602F0F2FC0028DAD03B691D70F4
:102AC000626838691368C3F844050120C3F84805F3
:102AD0000020C3F82001D3F82051C3F858015268F0
:102AE000D3F85801D20608D5626812680820C2F8E7
:102AF00000054FF48002C3F8042301229A6081F399
:102B00001188BFF36F8FF8BD7427002070B54B7923
:102B1000012B20D18B79032B1DD1CD790DB1012D46
:102B200019D10A7912B1022A15D10E220B68446814
:102B3000B3F5164F266864D02BD8B3F5165F63D073
:102B400014D8B3F5966F61D008D8B3F5967F60D0EE
:102B5000B3F5167F60D06FF0850051E0B3F5166FC6
:102B60005DD0B3F5965FF6D1374B3CE0B3F5E14F5E
:102B700058D007D8B3F5615F56D0B3F5964FEAD178
:102B8000324B30E047F61224A342E4D14FF4000365
:102B900029E0B3F5613F49D013D8B3F5963F48D04B
:102BA00009D84DF6C024A34245D0B3F5614FD2D128
:102BB0004FF46B0317E0B3F5E13FCCD14FF0EB736B
:102BC00011E0B3F5612F39D008D8214CA34238D099
:102BD000B3F5E12FBFD14FF0E86304E01D4CA342F1
:102BE000B9D14FF080530469C6F8243543681B6897
:102BF0002A43C3F86C2503C9231D83E80300002082
:102C000070BD4FF41D03EEE7134BECE74FF49E232A
:102C1000E9E74FF4A033E6E74FF41C33E3E74FF462
:102C20001D23E0E70D4BDEE70D4BDCE74FF06C7347
:102C3000D9E70C4BD7E74FF46503D4E74FF0706347
:102C4000D1E74FF08063CEE700B0130000A04E0044
:102C500090D0030040420F000050270000C07500D4
:102C600000F03A0000903A012DE9F7438046002237
:102C700001210220FEF798FF0220FEF779FFD8F825
:102C80000470D8F810603C680021C4F80015C6F83C
:102C90000080D7F80C9001AA484602F054FC051EAB
:102CA0001EDB019BD9F800201979186802F05EFC40
:102CB000051E15DB311D4046FFF728FF054678B994
:102CC0007B68990724D506F1180001F0D5FC244B48
:102CD000984209D02348452102F0B1F96FF004056C
:102CE000284603B0BDE8F083337EDB0003F1804368
:102CF00003F5F83304F10C0204F59071C3F81015D4
:102D0000C3F81425327E01239340174AC2F80435D4
:102D10000823C4F800353B7A53B9C4F81031D4F80D
:102D200010317369C4F834350123C4F83835236091
:102D30007B689A075CBF4FF48073C4F804337B68E8
:102D4000DB0644BF4FF48003C4F804333369C4F88E
:102D500044350023C4F848350123A360E360BFE78E
:102D60000000AD0B8580000000F0014070B501232C
:102D700083400E4ABFF35B8FDC4352E8001F01EA39
:102D8000040542E80056002EF7D1BFF35B8F4FF4E5
:102D9000803282400648C0F80823BFF35F8FBFF33C
:102DA0006F8F0B4214BF0120002070BD480E002021
:102DB0000010014070B40E49D1E90034D01AC31894
:102DC00044F1000422F07F46C1E90034A6F5001367
:102DD000B3F5400F09D2074B1B681A0A1B069C1952
:102DE000054B42F10005C3E9004570BC01F06ABD26
:102DF000C80000204C0E0020D000002011B3BFF30B
:102E00005B8F0123104A834052E800CF4CEA030C49
:102E100042E800C10029F7D1BFF35B8F0B4A4FF4A2
:102E200080338340C2F80433094BBFF35B8F1B68C8
:102E3000BFF35B8FC340DB0742BF064B4FF400324A
:102E4000C3F80021704700BF480E00200010014069
:102E5000440E002000E100E00D4B1868010A000656
:102E6000BFF35F8F0B4BD3F80435181841F1000105
:102E7000B3F5801F0AD2084BD3E90023904271EBCF
:102E8000030303D210F1807041F10001704700BFCD
:102E90004C0E002000100140D00000202DE9F74F1B
:102EA00016461F460446FFF761FF0090FFF7D4FF68
:102EB000B04271EB070351D23A4B301A67EB010174
:102EC000984271F100016AD2374B03EB0413D3E946
:102ED00002239F4208BF96424ED034494FF48039B6
:102EE00004F1500509FA04F9AD00C1F848932046F1
:102EF000ADB202F01CFB26F07F4B05F1804504F5D6
:102F0000A8732B4A019305F58835DC464FF0030A78
:102F1000019B2CF07F4041F82300C1F84493D1F885
:102F200004856FF00200A0EB0800604420F07F40B1
:102F3000904221D9286860B1D1F80485A8EB0B0034
:102F400020F07F40B0F5000F16D9204602F0EFFACE
:102F5000174A0AEB080C0AF1010AD9E70123154ABE
:102F6000BFF35B8FA34052E8000F184342E8000113
:102F70000029F8D1BFF35B8F0B490C98230101EBBB
:102F80000412C2E90267C8500D9B53600025204619
:102F90000099FFF733FF284603B0BDE8F08F6FF0CC
:102FA0001505F4E701008000B80000200010014082
:102FB000FDFF7F00440E002073B5194B194D00240E
:102FC0004FF0FF304FF0FF31C5F80845C3E902016B
:102FD0004FF48033C5F80433134B02264FF400320C
:102FE0000121C5F804631120C3F880212246FEF7B1
:102FF000DBFD1120FEF7BCFD0C4A0123AB602B600A
:1030000013600B4B0B4A0093019400232046FFF7FB
:1030100045FF3046FFF7A4FA204602B070BD00BF5E
:10302000B80000200010014000E100E0480E002040
:10303000B52D0000FFFF7F002DE9F7432F4CD4F89A
:10304000043399070BD5D4F8043143B12C4A00233B
:10305000C4F80431D4F80431136801331360D4F890
:103060000433DA032AD5BFF35B8F264B53E8002FD6
:1030700022F0010143E800100028F7D1BFF35B8F75
:10308000D30702D4D4F84031C3B10025C4F840516D
:10309000D4F84031FFF7E0FE4FF02003EFF3118248
:1030A00083F31288BFF36F8F174BD3E90267B042E7
:1030B000B94106D282F31188BFF36F8F03B0BDE828
:1030C000F0834FF0FF384FF0FF39C3E90289D3E9AD
:1030D00000101D604FF48033C4F84833C4F84051E9
:1030E000D4F8403182F31188BFF36F8F0029E5D007
:1030F000009032463B4628468847DFE700100140F3
:103100004C0E0020440E0020B8000020431C13B5D4
:1031100022D0012822DD124A124B9042D4BF04462D
:103120001C46FFF799FE104B0E49D3E90023801A85
:10313000B0F5000F28BF002404448C4228BF0C4681
:10314000A2180A4900914FF00000019043F10003DA
:10315000FFF7A4FE02B010BD024CE2E70124E0E755
:10316000FEFF7F00FFFF7F00C8000020B52D00009C
:1031700008B5FFF771FE024B1B68C01A08BD00BFFF
:10318000C8000020034808B5452101F058FF002081
:10319000FFF7DAF8C780000030B5816885B01039D4
:1031A00021F00704054601F09DFF10220146684604
:1031B00001F0F2FF07491022684601F0E2FF1023F8
:1031C0006A462146284601F05DFF003818BF0120FD
:1031D00005B030BD6075000030B50D46816887B020
:1031E000102302AA1039044601F037FF002802DA42
:1031F000012007B030BD102202A9204602F07BFA60
:1032000000283AD11E49102202A801F0AAFF002886
:103210000CBF012302232B70204602F058FA012331
:1032200001460DF10702204601F017FF0028DFDB01
:103230009DF8073003F00F021B096A702B71012201
:103240000DF10701204602F056FA10B96B78042BF5
:1032500003D901236B7000232B71A268183A22F066
:103260000702083AA91C204602F058FA0028BFD1EC
:10327000E91C204602F0ABFABBE70323CBE700BF13
:10328000607500007FB505466946042002F0A5FA86
:10329000044610B1FF2004B070BD02A9072002F05F
:1032A0009CFA012836D129482A46492101F0C7FE57
:1032B000274B02938DF80C409DF800509DF8086054
:1032C000244C00222078294602F007FA48B360789F
:1032D000314602F002FA20B3A378042B03D09DF804
:1032E000031099421DD1E378042B03D09DF80B10F5
:1032F000994216D12379042B0FD16379022B1BD16C
:10330000154A1648492101F09AFE6079831E022B66
:10331000C1D9BFE70028CFD0BCE79DF80210994281
:10332000EBD00132032A04F10604CBD10C48492129
:1033300001F085FE0120AEE7032B05D0094A0A49BA
:10334000042B08BF0A46DCE7084ADAE70C810000D4
:10335000030103037F810000EE800000578100001D
:103360006A810000F380000005810000E980000010
:1033700001680E4A9142034615D1C169A2F110229B
:10338000A2F1EF1291420ED18268012A0BD8C268D5
:1033900012B101698A4206D0586928B19B691B1A8B
:1033A0005842584170470120704700BF55AA00FF9E
:1033B00070B50D4B9E68A6B13046FFF7D9FF0446A5
:1033C00078B9F3686BB935690DB9204670BD2846E8
:1033D000FFF7CEFF28B9EB68B34202D12E462D6924
:1033E000F2E70124F1E700BF500E00202DE9F84379
:1033F0003F4F3C68D4B1BC68C4B100284AD0002912
:1034000048D001FB00F5B5FBF0F0884242D1281D01
:1034100040D8A9070DD025F003060436FC6803E068
:103420006368B34238D2A469002CF9D12046BDE8C4
:10343000F8832E46F2E7FB6041E006F120016318B5
:10344000203A5A600022C3E902242A4822691A61FC
:1034500060502949D96102B1D36062695A61A1699A
:103460009961AAB193619A6902B153614FF0010960
:10347000C4E9016923610023C4E905333B69DB0723
:103480002ED5FFF795FF58B31C4B48461B6826E026
:10349000FB60E8E70024C9E7A3681BB1174B0120D4
:1034A0001B6898476268921B232A04F12008C4D83D
:1034B0000123A360D4E90523002ABCD09361A3694A
:1034C0000BB162695A610023C4E905333B69DA072D
:1034D00006D5FFF76DFF18B1084B1B680120984710
:1034E0002A4600214046444601F056FE9EE700BFB2
:1034F000500E002055AA00FF669911EE3000002002
:1035000070B50546002800F08880444E3368002BD3
:1035100000F08380B268002A7FD0834203D87268AB
:103520001344984203D33E4B01201B689847A5F1F2
:1035300020042046FFF71CFF18B1394B01201B68FF
:10354000984755F8183C012B03D0354B01201B68D8
:103550009847002345F8183C55F8143C3BB39A684B
:103560002ABB55F81C2C02F120015A680A445A6003
:1035700055E905321A6155F8145C2B6903B1DD6019
:1035800020220021204601F007FE286910B183683F
:10359000002B2ED033699B073FD5FFF709FF00288A
:1035A0003BD01F4BBDE870401B680120184755F801
:1035B000100C00282AD0836843BB42686368134418
:1035C0002033636003692361D4E905239AB9CBB939
:1035D000436963618269A261B3B19C61A36903B16C
:1035E0005C61236903B1DC602022002101F0D4FD7D
:1035F000D0E72C46E1E79361A369002BE8D062692C
:103600005A61E5E7F360F7E7F460E7E7F36845F848
:10361000083C03B15C61F460BCE770BD500E002053
:103620003000002038B514220C460546002113480E
:1036300001F0B2FD1249134800F034F8232C1CD9D4
:1036400015F003031FBF043CE418C3F10403ED1895
:1036500022460021284601F09FFD084B0A499D6043
:10366000C3E90054203C6C609A6811609A68DA6083
:10367000A1F11021A1F1EF11D16138BD500E002050
:1036800001350000ED33000055AA00FF014B1B6817
:10369000184700BF38000020014B1B68184700BFC7
:1036A00034000020024B1860024B00201960704764
:1036B00038000020340000200A4619B1024B0021D6
:1036C0001B681847704700BF3C000020F8B500F1A8
:1036D00008064768044630460D4602F026FC87423D
:1036E0004BD16368B3F5807F47D80021304602F0A4
:1036F00087FD002841DD0021304602F0E7FBE0B302
:1037000045B9294604F1140002F07AFD002834DDA1
:103710000020F8BD04F12C050021284602F070FDC0
:1037200000282ADD0021284602F0D0FB28B304F14E
:1037300038050021284602F063FD00281DDD002128
:10374000284602F0C3FBC0B1002104F1140002F0CE
:1037500057FD002811DD002104F1440002F050FD66
:1037600000280ADD002104F1500002F049FD002884
:1037700003DD002104F15C00C6E70148C9E700BF92
:1037800080BFFFFF70B500210446FFF79FFF05468D
:1037900010B10E4D284670BD04F10806304602F007
:1037A000A5FB7F28F5D914342946204602F08EFB6C
:1037B0000028EED0204602F099FB0128E9D93146D5
:1037C000204602F0DCFC0028E4DBE2E700BEFFFF5D
:1037D000F0B50C4687B0002105461646FFF776FF88
:1037E000002839D103A802F0C7FA21466A6803A865
:1037F00002F0A1FB044618B103A802F0C3FA0CE0E2
:1038000005F10804214603A802F0B9FC002807DBF3
:1038100003A802F0B7FA6FF00304A4F5854418E09A
:1038200005F1680303A96F68009305F114022346AC
:10383000084602F0FFFF04460028DDD13A46314633
:1038400003A802F099FB044603A802F09BFA002C9F
:10385000E3D1204607B0F0BD004CFAE780BFFFFF80
:10386000234A2DE9F041B1F1000818BF9646214ADC
:103870002149224F224E234D234C18BF944602F17A
:10388000794208BF8E4602F57402204902F50162B2
:1038900008BF8C461E4918BF11461E4A18BF17465E
:1038A0001D4A18BF164602F1D14202F5C01202F5B8
:1038B0001E6218BF1546194A034618BF1446184819
:1038C000C3F86880A2F11162A2F50C22A2F28E2246
:1038D00018BF02460020C3E90000C3E902ECC3E9B7
:1038E0000417C3E90665C3E90842BDE8F08100BFDB
:1038F000D89E05C107D57C3667E6096A3AF54FA51B
:103900007F520E518C68059BABD9831F85AE67BB78
:1039100072F36E3C39590EF7310BC0FFA78FF96473
:10392000A44FFABE2DE9F04FD1B0031D019300F171
:1039300024030DF58E7B0393019B5A4653F8040F25
:1039400042F8040F03989842F8D14F9B02934CAD74
:10395000DDE94AE395E82011DDE948070493424B8D
:10396000059306AA4FF00009B9F10F0F63D84C7800
:103970000B78240444EA0364CB7823438C7843EA2D
:1039800004234FEAF52A8CEA0804059E93608AEA2C
:10399000B51A2C408AEA756A84EA0C04544456F835
:1039A00004AB059654442344029CCDF808C023443C
:1039B0004FEA703A40EA07048AEAB00A04EA0E04C1
:1039C00000EA07068AEAB05A3443544409F101096F
:1039D000DDF810A0CDF810E0B9F1400F9A4402F1E3
:1039E0000402234401F104011ED1CDE90634CDE9DE
:1039F0004E8CCDE94CA5CDE94A7ECDE94830019AFF
:103A000052F8043F01925BF8042F1344019A1360AB
:103A1000039B9342F3D106A84FF49471FFF74CFE39
:103A2000002051B0BDE8F08FBE46C4460746A84608
:103A30001846554698E7136852F8384C52F8346CDB
:103A40004FEAF34A8AEA734A8AEA932A52F8143C04
:103A5000234452F8344C4FEAB44484EAF6145344F5
:103A600084EAD60423448CE7347400004FF070439A
:103A700093F8E02F062A09D1D3F8E83FC3F30313E4
:103A8000033B042B02D8024AD05C704700207047E9
:103A9000A0810000024AD2F80034002BFBD070470E
:103AA00000E0014010B503F07AFA40B14FF08053C6
:103AB000904AD3F82433C3F30423C2F84035FFF708
:103AC000D5FF10B18C4B8D4A5A6703F068FA48B1A4
:103AD0004FF080534FF08042D3F84432C3F3423367
:103AE000C2F83C35FFF7C2FF30B1854AD2F8FC304E
:103AF00023F08073C2F8FC3003F051FA40B14FF06C
:103B000080430022C3F80C21C3F81021C3F83825E4
:103B1000FFF7ACFF20B14FF080430322C3F8A0258C
:103B2000FFF7A4FF60B1774B0522C3F810260122EE
:103B3000C3F888260022C3F818263F22C3F81426AB
:103B40004FF08053D3F83021511C09BF4FF0704320
:103B5000D3F8343193F8E02FD3F8E83F08BFC3F32C
:103B60000313062A4DD1033B042B03D8664AD35CCA
:103B7000002B46D04FF08052644BD2F80414C3F8A7
:103B80002015D2F80814C3F82415D2F80C14C3F881
:103B90002815D2F81014C3F82C15D2F81414C3F851
:103BA0003015D2F81814C3F83415D2F81C14C3F821
:103BB0004015D2F82014C3F84415D2F82414C3F8E1
:103BC0004815D2F82814C3F84C15D2F82C14C3F8B1
:103BD0005015D2F83014C3F85415D2F83414C3F881
:103BE0006015D2F83814C3F86415D2F83C14C3F841
:103BF0006815D2F84014C3F86C15D2F84424C3F801
:103C0000702503F0CCF948B14FF080534FF080425B
:103C1000D3F8583203F04F03C2F8E43E03F0BFF983
:103C200048B14FF08043D3F80024D20744BF6FF06F
:103C30000102C3F800244FF08053D3F83021062A44
:103C400026D1D3F83431033B042B02D8304AD35C5D
:103C500063B1304AD2F83C3743F48063C2F83C3752
:103C60004FF08053D3F83031062B11D14FF08053F1
:103C7000D3F83431033B042B02D8274AD35C3BB141
:103C80004FF01023D3F808224FF08043C3F8582593
:103C90004FF01023D3F80022002A03DBD3F80432BC
:103CA000002B22DA1D4901234FF01020C1F8043502
:103CB0001524FFF7EFFEC0F80042FFF7EBFEC0F857
:103CC0000442FFF7E7FE0023C1F80435FFF7E2FEE8
:103CD000BFF34F8F0A49124BCA6802F4E0621343E4
:103CE000CB60BFF34F8F00BFFDE70E4B0E4A1A604B
:103CF00010BD00BF0030014000C007400DF0ADBA5C
:103D000000ED00E0005000409B81000000C000403A
:103D100096810000001000409181000000E0014009
:103D20000400FA05400000200090D00370B5012582
:103D30000268BFF35B8FB2FA82F3C3F11F03DBB2F9
:103D400005FA03F422EA040450E8006F964204D115
:103D500040E8004CBCF1000FF6D1BFF35B8FE7D118
:103D600001480B7070BD00BF0000AD0B10B50368BB
:103D7000CB40DB0714D401238B400268BFF35B8F79
:103D800043EA020150E8004F944204D140E8001C8D
:103D9000BCF1000FF6D1BFF35B8FEED1014810BD2F
:103DA0000148FCE70000AD0B0400AD0BF7B504467D
:103DB00018B1012822D003B0F0BD4FF08043022299
:103DC000C3F80823C3F80401D3F804210122DA6000
:103DD000074601238DF8073042F210754FF08046F8
:103DE000CCB1012CE7D1C7B3D6F80C3403F00103F2
:103DF0003B70D6F80C34DA0321D516E04FF080433F
:103E00000022C3F80803C3F80021D3F8002158604A
:103E10000DF10707DDE7B7B1D6F8183403F0030357
:103E20003B60D6F81834D803C5D59DF807000128A3
:103E300003D103F0C3F8013DD2D1012CBBD10C4B0F
:103E400000225A71B7E7D6F81834D903B3D5012048
:103E500003F0B4F8013DF6D1ADE7D6F80C34DB033E
:103E6000EDD5012003F0AAF8013DF6D1E7E700BF48
:103E7000640E0020044B1A7922B9012218609A803E
:103E80000248704702487047640E00200000AD0BE6
:103E90000C00AD0B38B510B1012843D038BD4FF040
:103EA0008042D2F81834D2F81814C8030BD4D2F8D0
:103EB0001434D9070FD5D2F81C349B0708D4022339
:103EC000C2F80433EAE703F00303012B04D013B173
:103ED0000020FFF76BFF00234FF08042C2F8183537
:103EE0000023C2F80431D2F804310223C2F80433AB
:103EF000124AD2F8FC0040F08073C2F8FC30104B3C
:103F00001C6844F0010119605D685968491BB1F5EE
:103F10000A5FFAD31C604FF08043C2F8FC00012214
:103F20009A60BBE74FF080430022C3F80021D3F82A
:103F30000021C3F804031860B0E700BF00ED00E003
:103F4000001000E010B54FF08043D3F800216AB1B3
:103F50000022C3F80021D3F800210122C3F808236E
:103F6000114B587910B95A711B6898474FF080432C
:103F7000D3F8042172B10022C3F80421D3F804213C
:103F8000D3F81824D3F81814920704D10122C3F8E7
:103F900018259A6010BD0222C3F80823024BBDE821
:103FA00010401B6801201847640E0020034B0830A6
:103FB00033F81000C0F34010704700BF44000020E9
:103FC00070B500F108030C4C34F81330DA050546DF
:103FD0000E4607D5C3F3432304EBC30254F8333032
:103FE00052689847A3682BB1E26831462846BDE87D
:103FF0007040184770BD00BF4400002010B4124A42
:10400000083032F81030D9051BD5C3F3432123F40F
:10401000F85322F8103002F10E04002034F8023F69
:1040200013F4807F03D0C3F34323994209D00130B6
:104030002028F3D1002342F83130044810BCFFF7A8
:1040400095BE10BC704700BF4400002098000020BF
:1040500038B50246FFF7AAFF094C02F1080540B146
:1040600034F8153007495B0B03F5A273002041F8C3
:1040700023001046FFF7C2FF002324F8153038BD97
:1040800044000020006000402DE9F34104461D4635
:1040900009B34F4F00F1080837F81860B30706D589
:1040A000FFF784FF18B14B4802B0BDE8F08104F07F
:1040B0001F039B0003F1A0430978D3F8000726F003
:1040C000020620F00F0046F0010640EA810127F8C1
:1040D0001860C3F800179AB13D4B1778506804F187
:1040E000080633F8161011F0020F0DD00028DAD1AF
:1040F00033F8162022F01C0242EA870223F8162029
:10410000002D3BD13448CFE721F02001C904C90C70
:1041100023F816100028EBD0032FC4D8526892F869
:1041200000C02FB92D4A0CF5A27C42F82C70DFE7B5
:104130004FEA8C0202F1804202F5C04241EA4C3162
:10414000D2F8100520F00300C2F81005D2F81005CF
:1041500020F4473020F44070C2F810052002D2F855
:1041600010E500F4F85040EA074040EA0E0041F044
:10417000200123F81610C2F81005B9E7D5E9006749
:104180002046FFF73BFF002EBCD0114DD5E90023A0
:10419000964201D19F4219D011480DF10701FFF756
:1041A000C5FD0D4B98427FF47FAF9DF8072045F881
:1041B000326005EBC20308345F6035F8143043EA1F
:1041C000422343F4807325F814309BE70022EEE786
:1041D000440000200400AD0B0000AD0B0060004067
:1041E00098000020F8B5044689B33A4E00F108075C
:1041F00036F81750AB0704D4FFF7D8FE08B136489D
:10420000F8BD15F01C0F4B7824D104F01F0000F509
:10421000E07E4FF0A04C5B005CF82EC091F802E00D
:1042200009782CF4E16C43EA8E032CF0070C43EA86
:104230000C0343EA012300F5E0704FF0A04143F086
:10424000010345F0030541F8203026F8175022B944
:104250002248D5E7012BD8D1D1E71E4E04F108073B
:1042600036F817008307CAD592F800C06146890066
:1042700020F0200001F18041C00401F5C041C00CD4
:1042800026F817000023C1F810355578002DDFD02F
:10429000D1F81035927823F4981323F4F853C1F829
:1042A0001035D1F810E5230203F4F8532D0443EA46
:1042B0000E0305F4403512052B4302F4801240EA48
:1042C0004C30134340F0200026F81700C1F8103599
:1042D000BEE700BF440000200400AD0B0000AD0BA2
:1042E000014BC3E9020170474400002008B50246B3
:1042F000FFF75CFE38B1054B0548083233F8123041
:104300005B0B0B7008BD0348FCE700BF44000020B6
:104310000000AD0B0400AD0B38B50F4C94F85850AD
:10432000BDB94022294604F1100000F035FF0620F7
:10433000FDF71EFC094B0A48C3F87C51D3F87C21D9
:104340004FF00042C3F80423012384F8583063651A
:1043500038BD0448FCE700BF440000200060004076
:104360000000AD0B0500AD0B034B93F8580000386F
:1043700018BF0120704700BF4400002001460148DB
:10438000FFF7F4BC9400002001460148FFF7CEBCC3
:104390009400002010B50246FFF708FE02F1080461
:1043A0001C4B33F81430E0B113F0020419D15B0B4D
:1043B0009A0002F1804000F5C24002F1804202F50D
:1043C000C04204600068D2F8100540F00100C2F855
:1043D000100529B1012202FA03F30F4AC2F804338F
:1043E00010BDC3F38203042B10D0052B10D04FF067
:1043F000A043D3F8101502F01F03D94001F00101CA
:104400000231BDE81040104602F0E9BD0321F8E793
:104410000221F6E7440000200060004008B5024693
:10442000FFF7C4FDC0B102F108010E4B33F81130A3
:10443000990711D45B0B01229A409B000A4903F1B2
:10444000804303F5C043C1F80823D3F8102522F0B8
:104450000302C3F8102508BDBDE80840002110463E
:1044600002F0BDBD440000200060004010B50D4BBF
:1044700000F10802044633F81230DB070FD5FFF7CE
:10448000CDFF204604F01F04FFF7E2FD04F5E074C1
:104490004FF0A043022243F82420034810BD0348F4
:1044A000FCE700BF440000200000AD0B0400AD0B92
:1044B0002DE9F74F4F4B50485049002501222C461B
:1044C0001E6836B1D0F8046316421EBF1C601E6819
:1044D000154304338B424FEA4202F1D1464BD3F8E5
:1044E0007C31BBB14FF0A046D6F820350193C6F819
:1044F000203501AF4FF00108019C8CB93E4BC3F849
:104500007C41D3F87C31D6F820350193C6F82035AC
:10451000002BEED10124002D53D103B0BDE8F08F64
:1045200094FAA4F4B4FA84F4354A04F10803E008D8
:1045300032F813103B5C04F0070208FA02F223EA97
:1045400002033B54A30003F1A049C1F3820AD9F846
:104550000027CB06D346C2F3014218D55946204660
:104560005FFA82FAFFF72CFDD9F80037C3F3014355
:104570009A4507D10021204602F031FD51462046E0
:1045800002F02DFD08FA04F4C6F82045B4E7022A2B
:104590000CD10321204602F022FD0AF00503012B75
:1045A000F0D159462046FFF70BFDEBE702212046EC
:1045B00002F015FDBAF1030FF3D0032AE2D18A45C8
:1045C000EEE795FAA5F3B3FA83F304FA03F29B003E
:1045D00003F1804303F5C04325EA0205D3F8100533
:1045E000D3F81015C0F30420C1F30141FFF7E8FC34
:1045F00091E700BF00610040006000402061004082
:1046000044000020044AD2F80034DB07FBD50160E7
:10461000BFF35F8F704700BF00E001404FF0805351
:104620001A69B0FBF2F302FB130373B9084B0222C1
:10463000C3F80425C3F80805D3F80024D207FBD536
:1046400000220448C3F8042570470348704700BFA0
:1046500000E001400000AD0B0A00AD0B10B5054CA9
:104660000123C4F80435FFF7CDFF0023C4F8043557
:1046700010BD00BF00E0014001460148FFF756BBF6
:10468000A000002073B504460D464FF02003EFF361
:10469000118683F31288BFF36F8F042896BF124BE5
:1046A000124B53F820300022009245210246104858
:1046B00000F0C5FC3DB1EB69C3F308031BB10D4825
:1046C000452100F0BCFC0C4B0C480022452100F0B9
:1046D000B6FC29462046FEF755FD86F31188BFF348
:1046E0006F8F02B070BD00BF34750000CE81000036
:1046F000DC810000098200002F8200003782000068
:104700000F4B70B553F82040013053F82060A6429B
:1047100000D870BDD4E90035284698476DB138B14E
:104720000028B8BF4042EB68FF28A8BFFF201870E0
:10473000EA68537843F0010353700834E7E700BF99
:104740004875000008B5094B012203201A70FFF7D5
:10475000D7FF00F013F90420FFF7D2FFFBF728FE84
:10476000034A137B23F00103137308BD7427002051
:10477000D800002008B50348034A0021121A02F0AD
:1047800056FC08BDB80000207827002008B500209E
:10479000FFF7B6FF184B83F30888184C636943F49E
:1047A000007363610025E02384F82230E5772576E5
:1047B0006576A57684F82050636A43F4E02363624B
:1047C00084F82350FDF76EFCFDF792F94FF0FF33AC
:1047D000A362E362FDF76EFDFDF7F0FC02F01BFC47
:1047E0000120FFF78DFF0220FFF78AFF04482B46C8
:1047F0002A462946FDF736FAC02F002000ED00E0DA
:104800004547000008B50648064A0749121A02F053
:1048100010FCBDE80840054A0549064802F009BCFD
:1048200000000020B4000020D08200000000000042
:10483000D082000000000020034B1B680BB9FEF77C
:1048400097BC0020704700BF6C0E002010B50E4BC7
:104850001C689C4204D1FFF7EFFF6FF0004010BDD1
:10486000FFF7EAFF002CF8D0D4E904321B1A62EB00
:10487000E072B3F1004F72F10001EEDA002AACBF32
:1048800018460020EBE700BFA400002030B570B14F
:104890000B4B5B6898420AD0036843B1D3E904210B
:1048A000D0E90445121941EB0501C3E90421D0E91F
:1048B000003213605A600023C0E9003330BD00BFEE
:1048C000A40000202DE9F84303464FF02002EFF347
:1048D000118482F31288BFF36F8F254FDFF8949015
:1048E000D9F80000DFF890C03B604845DCE9001EC5
:1048F0004FEAE3750CD058B1D0E90486434575EB17
:10490000060217DAB8EB030266EB0506C0E90426D7
:1049100059184EEB0505CCE9001500253D60FFF761
:1049200095FF2946FEF7F2FB84F31188BFF36F8FE2
:10493000BDE8F88318EB01014EEBE873CCE90013F6
:1049400000220023C0E90423FFF7A0FF84F31188AD
:10495000BFF36F8F836898474FF02003EFF3118404
:1049600083F31288BFF36F8F3B68A3EB0803B7E7AD
:104970006C0E0020A400002058010020014800F027
:1049800077BA00BFA182000029B101290CBF07201E
:104990006FF01500704704207047002070472DE924
:1049A000F7430E4617469946044628B94FF0FF389C
:1049B000404603B0BDE8F0830029F7D0002AF5D0C7
:1049C000CB680D891D4404230DEB030229463846AC
:1049D00000F043FB80460028E8D1BDF8041073893D
:1049E00046F60812914225D1BDF806109942DDD154
:1049F00004230DEB03022944384600F02EFB002867
:104A0000D4D1BDF8042046F607139A42CED1C4E9AA
:104A100000679DF82830A4F80890A3727389BDF848
:104A200006202B44E360738913442B4404356361EF
:104A30002561BDE7002BE4D0B8E72DE9F3410E4630
:104A400017461D46044620B94FF0FF3002B0BDE8BE
:104A5000F0810368002BF7D04368002BF4D04FF6A9
:104A6000FF78D4E904239A4216D223685B8923B1E4
:104A7000E368934204BF043323610423216960681F
:104A80000DEB030200F0E9FA0028DDD1A37A2BB187
:104A9000D4E903329A4201D30120D7E72389BDF834
:104AA0000610434501F1040203D0BDF804C09C4543
:104AB0000BD115B1BDF804302B802369043333606A
:104AC0003980236913442361C0E7236913442361B8
:104AD000C7E700F046BB4FF4C0735843303070470F
:104AE0000B78042B06D0072B14BF4FF0FF304FF488
:104AF000C07070474FF4C070704710B5044600F0A6
:104B0000EAFAA3684FF4C072303B02FB103010BDCC
:104B10008168183921F007010122083900F046BEEA
:104B200013B50446019100F0D2FD0423A0F1080161
:104B30000DEB0302204600F00DFE02B010BD70B573
:104B400013460E461546002102460446FCF732F98C
:104B500050B92B4604F12C0201212046FCF72AF91A
:104B600010B1002E08BF002070BD73B504460020B0
:104B70000D461646FFF708FF6946C0B2FCF760FF16
:104B800030BB2C2303FB05440098E36825891D44B2
:104B900004230DEB0302294600F05FFAC0B9BDF80B
:104BA00004206489009846F608139A4215D1BDF88E
:104BB00006309C420CD104230DEB0302611900F076
:104BC0004CFA28B9BDF8042046F607139A4207D0DC
:104BD000009800F041FA02B070BD002CF2D0F7E767
:104BE000BDF80610214429443160F1E737B5044689
:104BF000426A802501A904200195FCF749FF58B9B4
:104C0000019B226DA36201A907200195FCF740FFDB
:104C1000054628B1092500E00125284603B030BD2E
:104C2000019B206A636500F056FAE065F5E7012311
:104C3000036003F1012343600023C0E9023370479E
:104C40004379012B07D10368012B04D10079431E5E
:104C5000584258417047002070477FB506460D46C0
:104C6000042001A9FCF7ECFE38BB0198FFF745FFD3
:104C7000F16D0446284600F0E6F80444019800F07F
:104C80002AFA0646019800F02DFA082201460DEB9B
:104C9000020000F081FA2B798DF808302146019846
:104CA000334602AA00F0EEF9041E019818BF012451
:104CB00000F0D2F9204604B070BD0124FAE700F0FC
:104CC000F6B92DE9F8430E46002107460846FFF7DE
:104CD0005BFE012104460020FFF756FE33789C421C
:104CE00021D0984221D101252C2303FB0575F86DB5
:104CF000AC6AFFF7F0FE013C07464FF000086B6A14
:104D000003EBC40253F83410D2F804901B684A46EF
:104D1000C91A3046C844FFF7D2FFB84504F1FF3442
:104D2000EDD3BDE8F8830025DEE70120F9E737B5CC
:104D300015460C460720694600F04FFDE979012928
:104D400003D00022204600F05CFD9DF80330012BCB
:104D500002D1204600F034FDA9682046FFF7E0FEAE
:104D60002046FEF719FA002003B030BD73B50D469A
:104D70000646FCF707F90446E86058B302282ED12E
:104D800001A90420FCF75CFE58BB01982A46314675
:104D9000FCF75EF80446D0B9019800F098FC0123B6
:104DA00001460DF10302019800F057F90446A0B93D
:104DB000019801220DF1030100F09DFC10B10123C7
:104DC0008DF803309DF8033003F00F03EB71019869
:104DD00000F042F9204602B070BD0124F7E7072435
:104DE000F8E70124F6E713B5042001A9FCF728FE33
:104DF00048B90198FFF78CFE0446019800F02CF9A1
:104E0000204602B010BD0124FAE71FB5042001A915
:104E1000FCF716FEA8B9019802A9FEF7DDF90446D1
:104E200068B99DF80B30032B03D1019800F0C8FC42
:104E30000446019800F010F9204604B010BD01248A
:104E4000F7E70124F8E710B543790279012B14BF85
:104E5000CB01002302F1FF3201FB0233026814BFD1
:104E60004C000C46013A04FB023010BD0020704794
:104E70000FB407B504A951F8040B0191FCF79EFA91
:104E800003B05DF804EB04B07047038B13F0070325
:104E900005D10368002B0CBF002003207047022BB4
:104EA00005D1408BB0FA80F0400980007047012B9B
:104EB00005D10368002B0CBF00200520704700209F
:104EC000704710B50C4600B111B96FF0150010BD58
:104ED000081D00F095F80028F9D1A368032BF6D936
:104EE000F3E72DE9F0410D4607461946281D904687
:104EF0001E4600F096F8044638B13346424629462D
:104F00003846A446BDE8F0416047BDE8F08110B4E2
:104F10004FF02004EFF3118284F31288BFF36F8FF8
:104F2000416110BC0121FCF757BA38B50C46054663
:104F300058B151B10B6843B14B6833B11C22002109
:104F400000F02AF92C61002038BD6FF01500FBE756
:104F500070B505460E46FFF7B4FF041E15DB4FF093
:104F60002003EFF3118283F31288BFF36F8F6B8BF3
:104F70002C8B4FF6FF718B4204F0070407D182F3AC
:104F80001188BFF36F8F6FF00A04204670BD022CAA
:104F90000CD101336B8382F31188BFF36F8F002331
:104FA000224631462846FFF79CFFEEE7062C14D830
:104FB000DFE804F004131313041A04000023336021
:104FC0006B683BB9C5E90066ACB902212846FCF71D
:104FD00003FADAE71E606E60F6E782F31188BFF32A
:104FE0006F8F6FF00404D0E782F31188BFF36F8FE7
:104FF0006FF08504C9E782F31188BFF36F8FC4E7B0
:10500000034658B1426802F00302012A03D0032A82
:1050100004D1026812B10020986070476FF015004B
:1050200070474268816002F00302032A4FF00002D9
:1050300003460CBF006810465A60704770470FB4B3
:1050400007B504A951F8040B0191FCF7B7F903B0B7
:105050005DF804EB04B070477047002930B4044693
:1050600018460BDBA5680844A84207D8E0686468C6
:10507000214484682468A44630BC60476FF0150062
:1050800030BC7047002930B4044618460BDBA568D5
:105090000844A84207D8E0686468214484686468CA
:1050A000A44630BC60476FF0150030BC7047002943
:1050B000034610B410460ADB9C680844A04206D898
:1050C000D8685B681944836810BC9B6818476FF008
:1050D000150010BC704708B5C0688368DB68984746
:1050E000006808BD08B5C0688368DB689847007928
:1050F00008BD70B54C680368A34201D2012070BDA1
:105100008A682244934201D30020F8E7D1E90325BD
:105110004E69B54203D36FF00B038B61F4E71B1BA1
:1051200042F835304368086902EBC00253600B69EE
:1051300001330B61E2E701460068FCF7EBBC00219C
:105140000120FCF7E7BC08B5FCF746FDBDE80840C8
:10515000FCF7B4BD034600201A5C02B97047013069
:10516000FAE710B55AB10139841810F8012B11F87B
:10517000013FA04201D09A42F7D0D01A10BD10468C
:10518000FCE710B5431E0A44914200D110BD11F84E
:10519000014B03F8014FF7E7C9B2024403469342BB
:1051A00000D1704703F8011BF9E74FF0FF3070475B
:1051B0000369C9B20C2201FB0233186C00F007002E
:1051C00070474FF02003EFF3118283F31288BFF38F
:1051D0006F8F036803F0C00343F00203036082F3A0
:1051E0001188BFF36F8F704770B5C9B203694FF074
:1051F0002004EFF3118584F31288BFF36F8F0C2620
:1052000006FB0134246C14F0C00408D0A24206D07E
:1052100085F31188BFF36F8F4FF0FF3070BD71437E
:105220000B4401221A6485F31188BFF36F8F436822
:105230000B445B6898470020F0E78022FFF7D4BF5B
:10524000F8B5069F0469C9B24FF02005EFF3118647
:1052500085F31288BFF36F8F0C2569430C44256CCE
:1052600005F0070CBCF1010F0BD1276486F3118800
:10527000BFF36F8FC4E90E2343685B589847002043
:10528000F8BD05F0C005AF4286F31188BFF36F8FFC
:105290000CBF6FF077004FF0FF30F1E713B58024BB
:1052A0000094FFF7CDFF02B010BD6FF0850070478E
:1052B00010B40069CBB21C2403FB0400002110BC15
:1052C0001047002001F089BE43685B68D3F81035B1
:1052D0000B600020704743685B6802EA010021EA26
:1052E0000201C3F80805C3F80C1500207047436895
:1052F0005B680020C3F80815704743685B680020AE
:10530000C3F80C15704743685A68D2F8043521EA8F
:1053100003000B40C2F80805C2F80C3500207047A6
:1053200010B503695868F8B1884219D19C680868BB
:105330005860A14200D19860002008602AB15A68E4
:105340000A609A68596002B99960002010E08142B1
:1053500006D10868206098688142EDD19C60EBE737
:10536000044600680028F2D1002AE8D16FF0150049
:1053700010BD38B505460C4601F03FFE002D07DB99
:10538000A84205D9401B84428CBF0020012038BDB3
:105390000020FCE7F7B51C46164600238268236010
:1053A000A36013690D4601AA69469847019B5A1EDE
:1053B00001921BB96FF0150003B0F0BD0098A26810
:1053C00047682168676085B9B31AD0F800C06345A3
:1053D00028BF63461A4403FB07112160A2600268DC
:1053E0009A4206D808300090E0E76B1AB3FBF7F357
:1053F000EBE70020E0E713460022FFF7CBBF2DE9E3
:10540000F047836886B01B698846914601A902AAC5
:1054100098470024A2462546029BAB4202D806B01C
:10542000BDE8F087019F07EBC50700267B68049362
:105430003A68B2420AEB060302D801359A46EBE716
:1054400003940593494603A8C0470028E7D0049B6E
:1054500001361C44ECE702690B46D2E9010183E8FE
:1054600003000020704743681B68D3F88004C3F82A
:1054700080047047436802691B68D3F8100150B17B
:105480005269002012780A70C3F81001D3F8102175
:1054900001221A6070474FF0FF30704702680346E0
:1054A000D2F8580140B95B689B0706D4D2F82001B6
:1054B000003818BF01207047012070474268136808
:1054C000D3F80413C90518D5D3F82011A9B14FF0AA
:1054D0002000EFF3118180F31288BFF36F8FD3F8B0
:1054E000200130B10020C3F82001D3F820010120B1
:1054F000D86081F31188BFF36F8F5268D20615D53B
:105500004FF02001EFF3118281F31288BFF36F8F08
:10551000D3F8581111B10021C3F800154FF48001E0
:10552000C3F8081382F31188BFF36F8F704700F13F
:1055300050039B009BB203F1804303F588330022A4
:105540001A601B68704730B543681360057A446879
:1055500004EBC504A34202D36FF0010030BD5C79B7
:105560008C4201D00833F0E70020F7E72DE9F04145
:1055700000EB81014FF0010C4FF0A047814202D1B6
:105580000020BDE8F081056805F07F03C5F34324E2
:105590007F2B4FEA154508BF4FF0FF330C2D50D835
:1055A000DFE805F0071116191C27194F4F4F4F2B35
:1055B0004C00C2F80C3503F01F050CFA05F5C7F8CE
:1055C0000855012502E0C2F8143500252E461BE0DF
:1055D000C2F80835EFE7C2F81035F6E7C2F808352B
:1055E000002503F01F060CFA06F6C7F80C65012625
:1055F0000AE0C2F80C350125F3E7C2F80835002CA3
:10560000E3D100252E46062450F804EB0EF4005892
:10561000B8F1000FCEF3C11E4FEA042418BF0026D4
:1056200003F01F0344EA8E0418BF0125344303F539
:10563000E07344EA450447F823409FE7C2F80C357D
:10564000DDE76FF085009CE72DE9F0434FF08043E4
:105650000446884685B0012744EA080400EB0109A6
:10566000C3F80876050B102200216846C4F30B042A
:10567000FFF792FD4FEA193624B9B9F5012F01D28F
:10568000B54210D96FF015001EE06A0904AB03EBB8
:10569000820205F01F0352F8101C07FA03F30B43B4
:1056A00042F8103C0135B542EFD14FF08043009AEB
:1056B000C3F80026019AC3F80426029AC3F81026FC
:1056C000039AC3F81426002005B0BDE8F083806873
:1056D000183820F0070010387047042809D0052832
:1056E00003D1481E18BF01207047431A5842584141
:1056F00070470120704738B515460C4661B15AB164
:10570000FFF7F0FC2544214611F8013B834203D109
:10571000A942F9D1012038BD0020FCE738B50C467C
:105720000123114622460546FFF797FC00280FDBB0
:10573000012221462846FFF7DEFF38B92378012BE6
:1057400014BF022301232370002038BD0323FAE78E
:105750000120FAE72DE9F7431D4606460F4690461D
:10576000FFF7B9FC6C1E044440420440082C1AD8D0
:105770003046FFF7B7FC2A46814641466846FFF7A8
:1057800000FD621B49460DEB0500FFF705FD2346B2
:105790006A4639463046FFF775FC003818BF0120CD
:1057A00003B0BDE8F0834FF0FF30F9E707B5012300
:1057B0008DF8042001AAFFF7CDFF03B05DF804FBCC
:1057C00081681839012221F00701FFF7EFBF8268D5
:1057D000183A22F00702FFF7A1BF13B50C46C0B27A
:1057E00001A9FCF72DF950B921460198FDF7F4FC09
:1057F00004460198FFF730FC204602B010BD01249A
:10580000FAE713B541EA021104468DF80710FFF7D5
:105810005EFF012301460DF107022046FFF79AFFC4
:1058200002B010BD0020704770B50368CD1A002D7E
:1058300002DC6FF05F0070BD93F900601C78002EF1
:105840000ADB5C1C04601B7813600368C91A1368C8
:105850008B42EED80020EEE704F07F04013C032CDD
:105860002BD8DFE804F0020A1421012DE1D05B7887
:105870001360036802330360E7E7022DD9DDB3F854
:1058800001305BBA9BB2136003680333F3E7032D67
:10589000CFDD9C785D78DB78240244EA054423431D
:1058A000136003680433E6E7042DC2DDD3F801304A
:1058B0001BBA136003680533DDE76FF06300BAE7D6
:1058C00070B404680E1B002E07DD26789E4208D1B6
:1058D0000134046070BCFFF7A7BF6FF05F0070BCBD
:1058E00070476FF06100FAE773B50223154601AA0D
:1058F0000446FFF7E5FF40B9019E2168324628467D
:1059000000F019FB23683344236002B070BDF0B58A
:10591000844617460E4614460025BCF10F0F06F1CB
:10592000400604F1400477D804096FF00F0202FB2F
:10593000040007284FEA841C01EB841607EB84144B
:105940005DD951F80C10A3FB0112691857F80C50DF
:1059500042F10002491947F80C10716842F1000247
:10596000A3FB01515219656841F1000152196260AF
:10597000B26841F10001A3FB02524919A56842F146
:1059800000024919A160F16842F10002A3FB015134
:105990005219E56841F100015219E260326941F1A2
:1059A0000001A3FB02524919256942F1000249197D
:1059B0002161716942F10002A3FB0151521965692D
:1059C00041F1000152196261B26941F10001A3FB8A
:1059D00002524919A56942F100024919A161F16910
:1059E00042F10002A3FB01155218E16945F10005DF
:1059F0005218E26145F100050838203420364FEA9C
:105A0000800C274606EB8000B04240F006816444DB
:105A1000002D40F01081F0BD56F8402CA3FB02E2AF
:105A200015EB0E0E54F8405C42F1000215EB0E052A
:105A300044F8405C56F83C5C42F10002A3FB05E5EB
:105A400012EB0E0E54F83C2C45F1000512EB0E0241
:105A500044F83C2C56F8382C45F10005A3FB02E233
:105A600015EB0E0E54F8385C42F1000215EB0E05F2
:105A700044F8385C56F8345C42F10002A3FB05E5BB
:105A800012EB0E0E54F8342C45F1000512EB0E0209
:105A900044F8342C56F8302C45F10005A3FB02E203
:105AA00015EB0E0E54F8305C42F1000215EB0E05BA
:105AB00044F8305C56F82C5C42F10002A3FB05E58B
:105AC00012EB0E0E54F82C2C45F1000512EB0E02D1
:105AD00044F82C2C56F8282C45F10005A3FB02E2D3
